:020000040800F2
:1000000000500020F9020008FF0200080303000866
:100010001B0300081F03000837030008000000004E
:100020000000000000000000000000003105000892
:10003000530300080000000091050008D5050008E2
:1000400069030008690300086903000869030008E0
:1000500069030008690300086903000869030008D0
:1000600069030008690300086903000869030008C0
:1000700069030008690300086903000869030008B0
:1000800069030008690300086903000869030008A0
:100090006903000869030008690300086903000890
:1000A0006903000869030008690300086903000880
:1000B0006903000869030008690300086903000870
:1000C0006903000869030008690300086903000860
:1000D0006903000869030008690300086903000850
:1000E0006903000869030008690300086903000840
:1000F0006903000869030008690300086903000830
:10010000690300086903000869030008690300081F
:10011000690300086903000869030008690300080F
:1001200069030008690300086903000869030008FF
:1001300000000000000000000000000000000000BF
:1001400000000000000000000000000000000000AF
:10015000000000000000000000000000000000009F
:10016000000000000000000000000000000000008F
:10017000000000000000000000000000000000007F
:10018000000000000000000000000000000000006F
:10019000000000000000000000000000000000005F
:1001A000000000000000000000000000000000004F
:1001B000000000000000000000000000000000003F
:1001C000000000000000000000000000000000002F
:1001D000000000000000000000000000000000001F
:1001E0005FF8E0F100B583B000F0D4FE304B314A47
:1001F0001360314A1360314B314A03E052F8041B5B
:1002000043F8041B2F498B42F8D32A4B1A682E4B14
:100210009A4200D0FEE7284B1A682C4B9A42F9D13B
:10022000234B2B4A13602B4A13602B4B02E0002216
:1002300043F8042B294A9342F9D3254B1B6813B981
:10024000244B1B6803B1FEE700F0B0FE694601A82D
:1002500000F0A8F8224C234BE41AA410002504E077
:10026000204B53F8253098470135AC42F8DC1E4C42
:100270001E4BE41AA410002504E01C4B53F8253053
:1002800098470135AC42F8DC0099019800F070FF06
:100290000546174C174BE41AA41004E0013C154B1B
:1002A00053F824309847002CF8DC284600F078F802
:1002B000BABADECA000000201400002000000020AE
:1002C0001012000818000020785634123254769824
:1002D0001800002048010020180000204C010020D8
:1002E0009403000894030008940300089403000892
:1002F000940300089403000808B5FFF773FF00BEDD
:10030000FEE71EF0040F0CBFEFF30880EFF3098047
:100310007146124A104700BEFEE700BEFEE71EF01F
:10032000040F0CBFEFF30880EFF3098071460C4A0D
:10033000104700BEFEE71EF0040F0CBFEFF308806D
:10034000EFF309807146074A104700BEFEE700BE82
:10035000FEE700BEFEE700BEFEE770471703000899
:0C036000330300084B03000800BEFEE75A
:10036C0010120008000000201800002010120008D5
:10037C000000000000000000180000204C010020CC
:08038C00000000000000000069
:1003A000FEE7000001230360014B0B60704700BFB4
:1003B0000400002070B501F00F0E11F0100F01D0F5
:1003C0004EEA020E002203E044610560013292B25F
:1003D000072A14D8012494401C40F7D006689500E1
:1003E0004FF00F0C0CFA05FC26EA0C060EFA05F588
:1003F00035432829E8D04829E7D10461E5E70822F8
:1004000003E044614560013292B20F2A1AD84FF0DE
:10041000010C0CFA02FC1CEA0304F4D04568A2F1BA
:10042000080C4FEA8C0C0F2606FA0CF625EA060596
:100430000EFA0CFC4CEA05052829E2D04829E1D146
:100440000461DFE770BD0161704741617047C368B7
:100450000B4201D00120704700207047830903F14F
:10046000804303F504331A6800F01F00012101FAEC
:1004700000F0104318607047034A536823F00303E9
:1004800003435360704700BF00100240034A5368A3
:1004900023F0F00303435360704700BF0010024095
:1004A000034A536823F4E06303435360704700BF7B
:1004B00000100240034A536823F46053034353601F
:1004C000704700BF0010024082B0002301934FF03C
:1004D000BF0383F31188BFF36F8FBFF34F8F019B6F
:1004E000002BFCD002B0704706480068006880F31B
:1004F000088862B661B6BFF34F8FBFF36F8F00DF1E
:1005000000BF000008ED00E04FF0807340F8043CAD
:1005100021F0010140F8081C034B40F80C3C40F866
:10052000202C4038704700BFC904000800000000BC
:10053000074B19680868B0E8F00F80F30988BFF32B
:100540006F8F4FF0000080F311884EF00D0E704752
:10055000400000204FF0BF0383F31188BFF36F8F7B
:10056000BFF34F8F024A136801331360704700BF17
:100570000C000020034A1368013B13600BB983F39E
:10058000118870470C0000200000000000000000EF
:10059000EFF30980BFF36F8F0D4B1A6820E9F00F5E
:1005A00010602DE908404FF0BF0080F3118800F083
:1005B000B5FC4FF0000080F31188BDE808401968D1
:1005C0000868B0E8F00F80F30988BFF36F8F7047B9
:1005D0004000002008B54FF0BF0383F31188BFF33C
:1005E0006F8FBFF34F8F00F08FFB28B14FF0E023E8
:1005F0004FF08052C3F8042D002383F3118808BD07
:100600004FF0E02300221A619A6141F63F725A616D
:1006100007221A617047000010B54FF0E023D3F8AD
:10062000202D42F47F02C3F8202DD3F8202D42F074
:100630007F42C3F8202DFFF7E3FF0024044B1C602A
:10064000FFF752FF00F06AFCFFF73EFF204610BDA7
:100650000C000020154B1A461B688342FBD35168DF
:1006600002EB010C844509D0416800EB010C6345A5
:1006700009D00360904218D0106070474068014470
:1006800051601046F0E710B4094C2468A3420AD028
:100690005B681944416013681B680360904200D096
:1006A000106010BC70470460F8E770473800002005
:1006B0002000002070B5054600F01EFB274B1B688C
:1006C0001D4243D135B1083515F0070F02D025F092
:1006D00007050835002D3BD0214B1B68AB4239D3B1
:1006E000204A146801E022461C466368AB4202D2ED
:1006F0002368002BF7D11C4B1B68A3422CD0166833
:1007000008362368136063685B1B102B18D8626877
:1007100013490B689B1A0B60144909688B4201D27C
:1007200012490B600D4B1B68134363600023236069
:100730000F4A13680133136000F066FB304670BD4A
:10074000601943606560FFF785FFE0E70026F3E787
:100750000026F1E70026EFE70026EDE72400002061
:100760002800002038000020200000202C0000205D
:100770003000002018B338B50446A0F1080550F841
:10078000043C0F4A1268134202D050F8081C01B111
:1007900038BD23EA020340F8043C00F0ADFA54F8F7
:1007A000041C084A13680B4413602846FFF752FFE5
:1007B000054A13680133136000F026FBE8E7704731
:1007C00024000020280000203400002000F108034D
:1007D00043604FF0FF328260C36003610023036017
:1007E000704700230361704743684B609A688A60D2
:1007F000516099600861036801330360704730B449
:100800000D68B5F1FF3F11D000F108031C465B688D
:100810001A68AA42FAD963684B6099608C6061607B
:10082000086103680133036030BC70470469F2E774
:100830000369416882688A60416851605A688242EF
:1008400006D0002202611A68013A1A6018687047DF
:1008500082685A60F5E70000074B1B681B6823B9E4
:10086000064B4FF0FF321A607047034B1B68DB6882
:100870001A68024B1A60704744000020F000002004
:1008800010B50446006BFFF775FF2046FFF772FFB7
:1008900010BD2DE9F04780460D4617469946089E43
:1008A000DDF824A00A9C9200A521206B00F0A0FC9A
:1008B000236B07F18042013A03EB820727F0070719
:1008C000002D3FD04FF0000CBCF10F0F0BD815F9E5
:1008D0000C2004EB0C0383F8342015F90C3013B111
:1008E0000CF1010CF0E7002384F84330042E00D90A
:1008F0000426E662E66400252565201DFFF771FFEA
:1009000004F11800FFF76DFF2461C6F10506A6612A
:1009100064620422294604F1540000F069FC0122BB
:10092000294604F1580000F063FC4A464146384627
:10093000FFF7EAFD2060BAF1000F01D0CAF80040CD
:10094000BDE8F087002384F83430CFE738B50024C1
:1009500007E004EB840293000E481844FFF736FFCB
:100960000134042CF5D90C4D2846FFF72FFF0B4C12
:100970002046FFF72BFF0A48FFF728FF0948FFF73B
:1009800025FF0948FFF722FF084B1D60084B1C603C
:1009900038BD00BF4C000020C4000020D80000205B
:1009A000FC00002028010020140100204400002049
:1009B0004800002010B50446FFF7CCFD224A13681A
:1009C00001331360214B1B685BB1214B1B686BB972
:1009D0001E4B1B68DA6AE36A9A4207D81B4B1C60FD
:1009E00004E01A4B1C601368012B29D0194A1368C4
:1009F000013313606364E06A01238340164A11687F
:100A00000B43136000EB8000211D144B03EB8000AF
:100A1000FFF7EAFEFFF7AEFD0D4B1B687BB10B4BFA
:100A20001B68DA6AE36A9A4209D24FF0E0234FF07A
:100A30008052C3F8042DBFF34F8FBFF36F8F10BDEB
:100A4000FFF784FFD2E700BFB00000204000002085
:100A500010010020BC000020C00000204C0000203D
:100A60000F4B1B68D3B110B5FFF774FD0D4BDB685E
:100A7000DC68201DFFF7DCFE0B4A1368013B1360A6
:100A8000074A1368013B1360FFF774FD2046FFF728
:100A9000F7FE034B1B68002BE6D110BD704700BF6B
:100AA000B400002028010020B000002008B5FFF7A6
:100AB000D7FF074B1B68012BF9D94FF0E0234FF00C
:100AC0008052C3F8042DBFF34F8FBFF36F8FEEE753
:100AD0004C00002070B504460D461D4B1E681D4B92
:100AE00018680430FFF7A4FE50B91A4B1B68DA6A85
:100AF000012303FA02F218490B6823EA02030B6090
:100B0000B4F1FF3F0DD03444124B1B685C60A64229
:100B100010D9124B18680F4B19680431FFF76FFE9C
:100B200070BD002DEFD00B4B196804310C48FFF756
:100B30005BFEF5E70B4B1868064B19680431FFF7AD
:100B40005EFE094B1B68A342EAD9074B1C60E7E72E
:100B50003C01002040000020C00000204800002090
:100B60001401002044000020F00000202DE9F04393
:100B700085B00746884614461E469000FFF79AFD4A
:100B8000F0B181465C20FFF795FD0546A0B1C0F8A5
:100B90003090D5B10023039302950D9B01930C9BDC
:100BA00000933346224641463846FFF772FE2846F8
:100BB000FFF700FF012005E04846FFF7DBFDE8E70F
:100BC0004FF0FF3005B0BDE8F0834FF0FF30F9E79C
:100BD00038B50446FFF7BEFC002C33D0251D28464F
:100BE000FFF726FE68B9E26A02EB82039B00214907
:100BF000CB5833B9012393401F490A6822EA030204
:100C00000A60A36A1BB104F11800FFF711FE1B4A2A
:100C10001368013313601A4B1B68A34215D0194A9D
:100C20001368013B13602046FFF72AFEFFF714FE0E
:100C3000FFF7A0FC144B1B681BB1114B1B68A342B0
:100C40000CD038BD0E4B1C68C8E729460F48FFF78B
:100C5000CBFD0F4A136801331360E9E74FF0E0233F
:100C60004FF08052C3F8042DBFF34F8FBFF36F8F47
:100C7000E7E700BF4C000020C0000020BC000020BF
:100C800040000020B00000201001002028010020BA
:100C9000B400002000B583B0114B019300230093F2
:100CA000782210491048FFF761FF012802D003B0F5
:100CB0005DF804FB4FF0BF0383F31188BFF36F8F20
:100CC000BFF34F8F094B4FF0FF321A60084B0122E0
:100CD0001A60084B00221A60FFF79EFCE7E700BF8E
:100CE000EC00002000120008AD0A0008F00000200F
:100CF000100100203C010020024A136801331360F8
:100D0000704700BFB8000020F8B5344B1B68002BBB
:100D10005DD1334B1E6801361E60AEB1314B1B688E
:100D2000B3424AD90027304B1B68DB6A03EB8303CD
:100D30009A002E4B9B58012B00D901272C4B1B6886
:100D4000002B49D0012747E02A4A11682A4B18682E
:100D500010601960294A136801331360FFF77CFDA6
:100D6000DCE70127234B1B681B6843B3214B1B683F
:100D7000DB68DC6863689E4226D3251D2846FFF7A2
:100D800057FDA36A1BB104F11800FFF751FDE36A98
:100D900001229A401A49086802430A6003EB830360
:100DA0009A00294611481044FFF71EFDE26A0E4BD7
:100DB0001B68DB6A9A42D4D2D4E70027D2E7094BFA
:100DC0004FF0FF321A60AEE7064A1360ABE70D4AF8
:100DD00013680133136000273846F8BDB8000020BF
:100DE0003C010020F0000020400000204C000020CA
:100DF000400100204400002048000020F4000020B2
:100E0000C0000020F800002038B5FFF7A3FB2E4BF0
:100E10001A68013A1A601B68002B4FD12B4B1B68D4
:100E20000BB900244BE00024294B1B681BB3284B53
:100E3000DB68DC6804F11800FFF7FAFC251D284682
:100E4000FFF7F6FCE06A01238340224A11680B4356
:100E5000136000EB800029461F4B03EB8000FFF777
:100E6000C3FCE26A1D4B1B68DB6A9A42DCD31C4B55
:100E700001221A60D8E70CB1FFF7EEFC194B1C6891
:100E800084B9174B1C68D4B14FF0E0234FF0805267
:100E9000C3F8042DBFF34F8FBFF36F8F01240EE013
:100EA000013C07D0FFF730FF0028F9D00C4B01229E
:100EB0001A60F5E70B4B00221A60E2E70024FFF707
:100EC00059FB204638BD00BFB8000020B00000200C
:100ED000FC000020C00000204C000020400000204A
:100EE00040010020F800002010B550B94FF0E02379
:100EF0004FF08052C3F8042DBFF34F8FBFF36F8FB5
:100F000010BD0446FFF7F8FE00212046FFF7E2FD82
:100F1000FFF77AFF0028F3D1E8E70000184B1B68C1
:100F20001BB1184B01221A607047164B00221A6041
:100F3000154B1B68B3FA83F3DBB2C3F11F031349EC
:100F400003EB830082000A4450684068506003EB62
:100F5000830C4FEA8C0208321144884209D003EB1B
:100F600083039A00094B13445B68DA68084B1A60E4
:100F70007047406862469100044A0A445060EEE7B8
:100F8000B800002040010020C00000204C000020DC
:100F90004000002008B500F05FF8024A024B9A605A
:100FA00008BD00BF0000000800ED00E008B500F03B
:100FB0007DF808BD254A136843F48033136000238D
:100FC0000133224A126812F4003F03D14FF6FF7238
:100FD0009342F5D11D4B1B6813F4003F00D1FEE78F
:100FE0001A4B5A685A605A685A605A6842F48062CA
:100FF0005A605A6822F440325A605A6842F44032C9
:101000005A605A6822F0036222F440225A605A68F9
:1010100042F0026242F400225A601A6842F0807282
:101020001A600A4B1B6813F0007FFAD0074B5A680E
:1010300022F003025A605A6842F002025A60034BDF
:101040005B6813F0080FFAD0704700BF0010024031
:1010500008B5FFF7AFFF08BD08B5124B1A6842F09C
:1010600001021A605968104A0A405A601A6822F050
:10107000847222F480321A601A6822F480221A6084
:101080005A6822F00F6222F470225A601A6822F025
:10109000847222F480321A604FF41F029A60FFF7C4
:1010A000D7FF08BD001002400C00FFE81B4B5B6837
:1010B000C3F38103012B0AD0022B0CD01BB1184BB8
:1010C000184A1A607047164B164A1A607047144B3C
:1010D000144A1A607047114B5B6813F4803F06D0C6
:1010E0000E4B5B6813F4003F14D10E4900E00E492B
:1010F0000A4A5368C3F38343526812F0006F01D069
:1011000043F010030E2B07D9013301FB03F3044A0C
:10111000136070470449EBE70233F6E70010024022
:101120001000002000127A0000093D0008B50120DF
:10113000FFF7A2F90020FFF7A9F90020FFF7B0F9A7
:101140000020FFF7B7F940F20460FFF787F908BD08
:1011500010B5064C4023032210212046FFF72AF940
:1011600040212046FFF76FF910BD00BF001001407D
:1011700000B583B0FFF7DAFFFFF7EAFF064B0193F4
:10118000012300930023C82204490548FFF7EEFC21
:10119000FFF780FDFEE700BF4401002008120008B1
:1011A000C911000808B540210648FFF750F920B9D9
:1011B00040210448FFF747F908BD40210148FFF7E7
:1011C00044F9F9E70010014010B5002407E0FFF7EB
:1011D000E9FF4FF4FA50FFF787FE0134E4B20E2C1A
:1011E000F5D9024B1868FFF7F3FCFEE74401002035
:1011F00003460244934200D1704703F8011BF9E70C
:0F12000049444C45000000007461736B203100BD
:10121000785634121C00002000000000AAAAAAAAD6
:0812200000F36F0632547698CA
:04000005080001E509
:00000001FF
